{
  "contractName": "Counter",
  "abi": [
    {
      "inputs": [],
      "name": "incrementCounter",
      "outputs": [],
      "stateMutability": "nonpayable",
      "type": "function"
    },
    {
      "inputs": [],
      "name": "decrementCounter",
      "outputs": [],
      "stateMutability": "nonpayable",
      "type": "function"
    },
    {
      "inputs": [],
      "name": "getCount",
      "outputs": [
        {
          "internalType": "int256",
          "name": "",
          "type": "int256"
        }
      ],
      "stateMutability": "view",
      "type": "function"
    },
    {
      "inputs": [],
      "name": "getOwner",
      "outputs": [
        {
          "internalType": "address",
          "name": "",
          "type": "address"
        }
      ],
      "stateMutability": "view",
      "type": "function"
    },
    {
      "inputs": [
        {
          "internalType": "address",
          "name": "owner",
          "type": "address"
        }
      ],
      "name": "setOwner",
      "outputs": [],
      "stateMutability": "nonpayable",
      "type": "function"
    },
    {
      "inputs": [
        {
          "internalType": "int256",
          "name": "to",
          "type": "int256"
        }
      ],
      "name": "jumpTo",
      "outputs": [],
      "stateMutability": "nonpayable",
      "type": "function"
    }
  ],
  "bytecode": "0x60806040526000805534801561001457600080fd5b50610237806100246000396000f3fe608060405234801561001057600080fd5b506004361061007f576000357c01000000000000000000000000000000000000000000000000000000009004806313af4035146100845780635b34b966146100c8578063893d20e8146100d2578063a87d942c14610106578063b097279514610124578063f5c5ad8314610152575b600080fd5b6100c66004803603602081101561009a57600080fd5b81019080803573ffffffffffffffffffffffffffffffffffffffff16906020019092919050505061015c565b005b6100d06101a0565b005b6100da6101b2565b604051808273ffffffffffffffffffffffffffffffffffffffff16815260200191505060405180910390f35b61010e6101dc565b6040518082815260200191505060405180910390f35b6101506004803603602081101561013a57600080fd5b81019080803590602001909291905050506101e5565b005b61015a6101ef565b005b80600160006101000a81548173ffffffffffffffffffffffffffffffffffffffff021916908373ffffffffffffffffffffffffffffffffffffffff16021790555050565b600a6000808282540192505081905550565b6000600160009054906101000a900473ffffffffffffffffffffffffffffffffffffffff16905090565b60008054905090565b8060008190555050565b6001600080828254039250508190555056fea26469706673582212200e4817aaca44b09e39b364c788b662a6b10ed570cf0c65ad78ee37746be5d08064736f6c634300060c0033",
  "source": "// SPDX-License-Identifier: non-open-source\r\npragma solidity >=0.6.0 <0.8.0;\r\n\r\ncontract Counter {\r\n    int256 private count = 0;\r\n    \r\n    address private _owner;\r\n    \r\n    function incrementCounter() public {\r\n        count += 10;\r\n    }\r\n\r\n    function decrementCounter() public {\r\n        count -= 1;\r\n    }\r\n\r\n    function getCount() public view returns (int256) {\r\n        return count;\r\n    }\r\n\r\n    function getOwner() public view returns (address) {\r\n        \r\n        return _owner;\r\n    }\r\n\r\n    function setOwner(address owner) public {\r\n        _owner = owner;\r\n    }\r\n\r\n    function jumpTo(int256 to) public {\r\n        count = to;        \r\n    }    \r\n}",
  "sourcePath": "D:/qiaoy/projects/blockchain/harmonyOne/payitforward/contracts/Counter.sol",
  "compiler": {
    "name": "solc",
    "version": "0.6.12+commit.27d51765.Emscripten.clang"
  },
  "schemaVersion": "3.0.22",
  "updatedAt": "2020-09-26T13:41:30.073Z",
  "devdoc": {
    "kind": "dev",
    "methods": {},
    "version": 1
  },
  "userdoc": {
    "kind": "user",
    "methods": {},
    "version": 1
  }
}