{
  "contractName": "Fund",
  "abi": [
    {
      "anonymous": false,
      "inputs": [
        {
          "indexed": true,
          "internalType": "address",
          "name": "_to",
          "type": "address"
        },
        {
          "indexed": false,
          "internalType": "uint256",
          "name": "_value",
          "type": "uint256"
        }
      ],
      "name": "Consume",
      "type": "event"
    },
    {
      "anonymous": false,
      "inputs": [
        {
          "indexed": true,
          "internalType": "address",
          "name": "_from",
          "type": "address"
        },
        {
          "indexed": false,
          "internalType": "uint256",
          "name": "_value",
          "type": "uint256"
        }
      ],
      "name": "Receive",
      "type": "event"
    },
    {
      "anonymous": false,
      "inputs": [
        {
          "indexed": true,
          "internalType": "address",
          "name": "_to",
          "type": "address"
        },
        {
          "indexed": false,
          "internalType": "uint256",
          "name": "_value",
          "type": "uint256"
        }
      ],
      "name": "Withdraw",
      "type": "event"
    },
    {
      "stateMutability": "payable",
      "type": "receive"
    },
    {
      "inputs": [
        {
          "internalType": "address",
          "name": "owner",
          "type": "address"
        }
      ],
      "name": "setOwner",
      "outputs": [],
      "stateMutability": "nonpayable",
      "type": "function"
    },
    {
      "inputs": [
        {
          "internalType": "address payable",
          "name": "to",
          "type": "address"
        },
        {
          "internalType": "uint256",
          "name": "amount",
          "type": "uint256"
        }
      ],
      "name": "consume",
      "outputs": [],
      "stateMutability": "payable",
      "type": "function"
    },
    {
      "inputs": [
        {
          "internalType": "address payable",
          "name": "to",
          "type": "address"
        },
        {
          "internalType": "uint256",
          "name": "amount",
          "type": "uint256"
        }
      ],
      "name": "withdraw",
      "outputs": [],
      "stateMutability": "payable",
      "type": "function"
    },
    {
      "inputs": [],
      "name": "getBalance",
      "outputs": [
        {
          "internalType": "uint256",
          "name": "",
          "type": "uint256"
        }
      ],
      "stateMutability": "view",
      "type": "function"
    },
    {
      "inputs": [],
      "name": "getOwner",
      "outputs": [
        {
          "internalType": "address",
          "name": "",
          "type": "address"
        }
      ],
      "stateMutability": "view",
      "type": "function"
    }
  ],
  "bytecode": "0x608060405234801561001057600080fd5b50610490806100206000396000f3fe60806040526004361061006b576000357c01000000000000000000000000000000000000000000000000000000009004806312065fe01461007757806313af4035146100a2578063224b5c72146100f3578063893d20e814610141578063f3fef3a31461018257610072565b3661007257005b600080fd5b34801561008357600080fd5b5061008c6101d0565b6040518082815260200191505060405180910390f35b3480156100ae57600080fd5b506100f1600480360360208110156100c557600080fd5b81019080803573ffffffffffffffffffffffffffffffffffffffff1690602001909291905050506101ef565b005b61013f6004803603604081101561010957600080fd5b81019080803573ffffffffffffffffffffffffffffffffffffffff16906020019092919080359060200190929190505050610232565b005b34801561014d57600080fd5b50610156610318565b604051808273ffffffffffffffffffffffffffffffffffffffff16815260200191505060405180910390f35b6101ce6004803603604081101561019857600080fd5b81019080803573ffffffffffffffffffffffffffffffffffffffff16906020019092919080359060200190929190505050610341565b005b60003073ffffffffffffffffffffffffffffffffffffffff1631905090565b806000806101000a81548173ffffffffffffffffffffffffffffffffffffffff021916908373ffffffffffffffffffffffffffffffffffffffff16021790555050565b80803073ffffffffffffffffffffffffffffffffffffffff1631101561025757600080fd5b8282808273ffffffffffffffffffffffffffffffffffffffff16311061027c57600080fd5b8473ffffffffffffffffffffffffffffffffffffffff166108fc859081150290604051600060405180830381858888f193505050501580156102c2573d6000803e3d6000fd5b508473ffffffffffffffffffffffffffffffffffffffff167fb3762e93ec66871dd27c421b64edc79636345ff0a949cd04f7f8efce5bd4240e856040518082815260200191505060405180910390a25050505050565b60008060009054906101000a900473ffffffffffffffffffffffffffffffffffffffff16905090565b80803073ffffffffffffffffffffffffffffffffffffffff1631101561036657600080fd5b8260008054906101000a900473ffffffffffffffffffffffffffffffffffffffff1673ffffffffffffffffffffffffffffffffffffffff168173ffffffffffffffffffffffffffffffffffffffff16146103bf57600080fd5b8373ffffffffffffffffffffffffffffffffffffffff166108fc849081150290604051600060405180830381858888f19350505050158015610405573d6000803e3d6000fd5b508373ffffffffffffffffffffffffffffffffffffffff167f884edad9ce6fa2440d8a54cc123490eb96d2768479d49ff9c7366125a9424364846040518082815260200191505060405180910390a25050505056fea26469706673582212200c5a46a58663e0c7a015320c1f3c515c60504bc645e7aac3f7b56132b8dc1a0164736f6c634300060c0033",
  "source": "// SPDX-License-Identifier: non-open-source\r\npragma solidity >=0.6.0 <0.8.0;\r\n\r\n// This is a contract for donation fund account\r\n// The address deployed the contract is the \r\n// funding account\r\n// Donation is for adding fund to this account\r\n// Redeem is for releasing fund from this account\r\ncontract Fund {\r\n\r\n    address private _owner; \r\n\r\n    event Receive(address indexed _from, uint256 _value); \r\n    event Consume(address indexed _to, uint256 _value);\r\n    event Withdraw(address indexed _to, uint256 _value);\r\n\r\n    modifier isOwner(address forCheck) {\r\n        require (address(forCheck) == _owner);\r\n        _;\r\n    }\r\n\r\n    modifier sufficient(uint256 amount) {\r\n        require(address(this).balance >= amount);\r\n        _;\r\n    }\r\n\r\n    modifier limited(address to, uint256 amount) {\r\n        require(to.balance < amount);\r\n        _;\r\n    }\r\n\r\n    receive () external payable {}\r\n    \r\n    function setOwner(address owner) public {\r\n        _owner = owner;\r\n    }\r\n\r\n    function consume(address payable to, uint256 amount) public sufficient(amount) \r\n                            limited(to, amount) payable {\r\n        \r\n        to.transfer(amount);\r\n        emit Consume(to, amount);\r\n    }\r\n\r\n    // withdraw fund to owner\r\n    function withdraw(address payable to, uint256 amount) public sufficient(amount) isOwner(to) payable {\r\n        \r\n        to.transfer(amount);\r\n        emit Withdraw(to, amount);\r\n    }\r\n\r\n    function getBalance() public view returns(uint) {\r\n        return address(this).balance;\r\n    }\r\n\r\n    function getOwner() public view returns (address) {\r\n        return _owner;\r\n    } \r\n}",
  "sourcePath": "D:\\qiaoy\\projects\\blockchain\\harmonyOne\\payitforward\\contracts\\Fund.sol",
  "compiler": {
    "name": "solc",
    "version": "0.6.12+commit.27d51765.Emscripten.clang"
  },
  "schemaVersion": "3.0.22",
  "updatedAt": "2020-09-26T20:30:48.344Z",
  "devdoc": {
    "kind": "dev",
    "methods": {},
    "version": 1
  },
  "userdoc": {
    "kind": "user",
    "methods": {},
    "version": 1
  }
}