{
  "contractName": "Wallet",
  "abi": [
    {
      "anonymous": false,
      "inputs": [
        {
          "indexed": true,
          "internalType": "address",
          "name": "_from",
          "type": "address"
        },
        {
          "indexed": true,
          "internalType": "address",
          "name": "_to",
          "type": "address"
        },
        {
          "indexed": false,
          "internalType": "uint256",
          "name": "amount",
          "type": "uint256"
        }
      ],
      "name": "Donate",
      "type": "event"
    },
    {
      "anonymous": false,
      "inputs": [
        {
          "indexed": true,
          "internalType": "address",
          "name": "_from",
          "type": "address"
        },
        {
          "indexed": true,
          "internalType": "address",
          "name": "_to",
          "type": "address"
        },
        {
          "indexed": false,
          "internalType": "uint256",
          "name": "amount",
          "type": "uint256"
        }
      ],
      "name": "Redeem",
      "type": "event"
    },
    {
      "anonymous": false,
      "inputs": [
        {
          "indexed": true,
          "internalType": "address",
          "name": "_to",
          "type": "address"
        },
        {
          "indexed": false,
          "internalType": "uint256",
          "name": "_value",
          "type": "uint256"
        }
      ],
      "name": "Withdraw",
      "type": "event"
    },
    {
      "stateMutability": "payable",
      "type": "receive"
    },
    {
      "inputs": [
        {
          "internalType": "address",
          "name": "sender",
          "type": "address"
        }
      ],
      "name": "setOwner",
      "outputs": [],
      "stateMutability": "nonpayable",
      "type": "function"
    },
    {
      "inputs": [
        {
          "internalType": "address",
          "name": "from",
          "type": "address"
        },
        {
          "internalType": "address payable",
          "name": "to",
          "type": "address"
        },
        {
          "internalType": "uint256",
          "name": "amount",
          "type": "uint256"
        }
      ],
      "name": "donate",
      "outputs": [],
      "stateMutability": "payable",
      "type": "function"
    },
    {
      "inputs": [
        {
          "internalType": "address",
          "name": "from",
          "type": "address"
        },
        {
          "internalType": "address payable",
          "name": "to",
          "type": "address"
        },
        {
          "internalType": "uint256",
          "name": "index",
          "type": "uint256"
        }
      ],
      "name": "redeemPromise",
      "outputs": [],
      "stateMutability": "payable",
      "type": "function"
    },
    {
      "inputs": [
        {
          "internalType": "address payable",
          "name": "provider",
          "type": "address"
        },
        {
          "internalType": "address",
          "name": "consumer",
          "type": "address"
        },
        {
          "internalType": "uint256",
          "name": "amount",
          "type": "uint256"
        }
      ],
      "name": "consume",
      "outputs": [],
      "stateMutability": "payable",
      "type": "function"
    },
    {
      "inputs": [
        {
          "internalType": "address payable",
          "name": "provider",
          "type": "address"
        },
        {
          "internalType": "address",
          "name": "consumer",
          "type": "address"
        },
        {
          "internalType": "uint256",
          "name": "amount",
          "type": "uint256"
        },
        {
          "internalType": "string",
          "name": "promiseName",
          "type": "string"
        },
        {
          "internalType": "uint256",
          "name": "promiseAmount",
          "type": "uint256"
        }
      ],
      "name": "consumeWithPromise",
      "outputs": [],
      "stateMutability": "payable",
      "type": "function"
    },
    {
      "inputs": [
        {
          "internalType": "address payable",
          "name": "to",
          "type": "address"
        },
        {
          "internalType": "uint256",
          "name": "amount",
          "type": "uint256"
        }
      ],
      "name": "withdraw",
      "outputs": [],
      "stateMutability": "payable",
      "type": "function"
    },
    {
      "inputs": [],
      "name": "getBalance",
      "outputs": [
        {
          "internalType": "uint256",
          "name": "",
          "type": "uint256"
        }
      ],
      "stateMutability": "view",
      "type": "function"
    },
    {
      "inputs": [],
      "name": "getOwner",
      "outputs": [
        {
          "internalType": "address",
          "name": "",
          "type": "address"
        }
      ],
      "stateMutability": "view",
      "type": "function"
    },
    {
      "inputs": [],
      "name": "getPromises",
      "outputs": [
        {
          "internalType": "string[]",
          "name": "",
          "type": "string[]"
        }
      ],
      "stateMutability": "view",
      "type": "function"
    }
  ],
  "bytecode": "0x608060405234801561001057600080fd5b50611323806100206000396000f3fe6080604052600436106100a7576000357c0100000000000000000000000000000000000000000000000000000000900480634ca959a0116100765780634ca959a01461013f57806383d3dc6f1461015b578063893d20e814610177578063a01afb0d146101a2578063f3fef3a3146101cd576100ae565b806312065fe0146100b357806313af4035146100de5780631e51e4da14610107578063386bc05a14610123576100ae565b366100ae57005b600080fd5b3480156100bf57600080fd5b506100c86101e9565b6040516100d5919061111e565b60405180910390f35b3480156100ea57600080fd5b5061010560048036038101906101009190610d4a565b610208565b005b610121600480360381019061011c9190610e8d565b61024b565b005b61013d60048036038101906101389190610e8d565b61048f565b005b61015960048036038101906101549190610d73565b6105c0565b005b61017560048036038101906101709190610dc2565b6106ae565b005b34801561018357600080fd5b5061018c610724565b60405161019991906110b8565b60405180910390f35b3480156101ae57600080fd5b506101b761074d565b6040516101c491906110fc565b60405180910390f35b6101e760048036038101906101e29190610e51565b61088f565b005b60003073ffffffffffffffffffffffffffffffffffffffff1631905090565b806000806101000a81548173ffffffffffffffffffffffffffffffffffffffff021916908373ffffffffffffffffffffffffffffffffffffffff16021790555050565b8260008054906101000a900473ffffffffffffffffffffffffffffffffffffffff1673ffffffffffffffffffffffffffffffffffffffff168173ffffffffffffffffffffffffffffffffffffffff16146102a457600080fd5b6102ac610bb1565b6001600284815481106102bb57fe5b906000526020600020016040516102d291906110a1565b908152602001604051809103902060405180606001604052908160008201548152602001600182018054600181600116156101000203166002900480601f01602080910402602001604051908101604052809291908181526020018280546001816001161561010002031660029004801561038e5780601f106103635761010080835404028352916020019161038e565b820191906000526020600020905b81548152906001019060200180831161037157829003601f168201915b5050505050815260200160028201548152505090508373ffffffffffffffffffffffffffffffffffffffff166108fc82604001519081150290604051600060405180830381858888f193505050501580156103ed573d6000803e3d6000fd5b5080604001513073ffffffffffffffffffffffffffffffffffffffff1631101561041657600080fd5b8373ffffffffffffffffffffffffffffffffffffffff168573ffffffffffffffffffffffffffffffffffffffff167fd12200efa34901b99367694174c3b0d32c99585fdf37c7c26892136ddd0836d98360400151604051610477919061111e565b60405180910390a3610488836109a8565b5050505050565b8260008054906101000a900473ffffffffffffffffffffffffffffffffffffffff1673ffffffffffffffffffffffffffffffffffffffff168173ffffffffffffffffffffffffffffffffffffffff16146104e857600080fd5b81803073ffffffffffffffffffffffffffffffffffffffff1631101561050d57600080fd5b8373ffffffffffffffffffffffffffffffffffffffff166108fc849081150290604051600060405180830381858888f19350505050158015610553573d6000803e3d6000fd5b508373ffffffffffffffffffffffffffffffffffffffff168573ffffffffffffffffffffffffffffffffffffffff167f88dcaca629d63d86330e97adc358b13dd0ebd703239aea96b7ea2fb331b16f4e856040516105b1919061111e565b60405180910390a35050505050565b8160008054906101000a900473ffffffffffffffffffffffffffffffffffffffff1673ffffffffffffffffffffffffffffffffffffffff168173ffffffffffffffffffffffffffffffffffffffff161461061957600080fd5b60008490508073ffffffffffffffffffffffffffffffffffffffff1663224b5c7230856040518363ffffffff167c01000000000000000000000000000000000000000000000000000000000281526004016106759291906110d3565b600060405180830381600087803b15801561068f57600080fd5b505af11580156106a3573d6000803e3d6000fd5b505050505050505050565b8360008054906101000a900473ffffffffffffffffffffffffffffffffffffffff1673ffffffffffffffffffffffffffffffffffffffff168173ffffffffffffffffffffffffffffffffffffffff161461070757600080fd5b6107128686866105c0565b61071c8383610aff565b505050505050565b60008060009054906101000a900473ffffffffffffffffffffffffffffffffffffffff16905090565b60608060028054905067ffffffffffffffff8111801561076c57600080fd5b506040519080825280602002602001820160405280156107a057816020015b606081526020019060019003908161078b5790505b50905060005b60028054905081101561088757600281815481106107c057fe5b906000526020600020018054600181600116156101000203166002900480601f01602080910402602001604051908101604052809291908181526020018280546001816001161561010002031660029004801561085e5780601f106108335761010080835404028352916020019161085e565b820191906000526020600020905b81548152906001019060200180831161084157829003601f168201915b505050505082828151811061086f57fe5b602002602001018190525080806001019150506107a6565b508091505090565b8160008054906101000a900473ffffffffffffffffffffffffffffffffffffffff1673ffffffffffffffffffffffffffffffffffffffff168173ffffffffffffffffffffffffffffffffffffffff16146108e857600080fd5b81803073ffffffffffffffffffffffffffffffffffffffff1631101561090d57600080fd5b8373ffffffffffffffffffffffffffffffffffffffff166108fc849081150290604051600060405180830381858888f19350505050158015610953573d6000803e3d6000fd5b508373ffffffffffffffffffffffffffffffffffffffff167f884edad9ce6fa2440d8a54cc123490eb96d2768479d49ff9c7366125a94243648460405161099a919061111e565b60405180910390a250505050565b60006001600280549050039050816001600283815481106109c557fe5b906000526020600020016040516109dc91906110a1565b908152602001604051809103902060000181905550606060028281548110610a0057fe5b906000526020600020018054600181600116156101000203166002900480601f016020809104026020016040519081016040528092919081815260200182805460018160011615610100020316600290048015610a9e5780601f10610a7357610100808354040283529160200191610a9e565b820191906000526020600020905b815481529060010190602001808311610a8157829003601f168201915b505050505090508060028481548110610ab357fe5b906000526020600020019080519060200190610ad0929190610bd2565b506002805480610adc57fe5b600190038181906000526020600020016000610af89190610c52565b9055505050565b6040518060600160405280600280549050815260200183815260200182815250600183604051610b2f919061108a565b9081526020016040518091039020600082015181600001556020820151816001019080519060200190610b63929190610bd2565b5060408201518160020155905050600282908060018154018082558091505060019003906000526020600020016000909190919091509080519060200190610bac929190610bd2565b505050565b60405180606001604052806000815260200160608152602001600081525090565b828054600181600116156101000203166002900490600052602060002090601f016020900481019282601f10610c1357805160ff1916838001178555610c41565b82800160010185558215610c41579182015b82811115610c40578251825591602001919060010190610c25565b5b509050610c4e9190610c9a565b5090565b50805460018160011615610100020316600290046000825580601f10610c785750610c97565b601f016020900490600052602060002090810190610c969190610c9a565b5b50565b5b80821115610cb3576000816000905550600101610c9b565b5090565b600081359050610cc6816112a8565b92915050565b600081359050610cdb816112bf565b92915050565b600082601f830112610cf257600080fd5b8135610d05610d0082611166565b611139565b91508082526020830160208301858383011115610d2157600080fd5b610d2c838284611255565b50505092915050565b600081359050610d44816112d6565b92915050565b600060208284031215610d5c57600080fd5b6000610d6a84828501610cb7565b91505092915050565b600080600060608486031215610d8857600080fd5b6000610d9686828701610ccc565b9350506020610da786828701610cb7565b9250506040610db886828701610d35565b9150509250925092565b600080600080600060a08688031215610dda57600080fd5b6000610de888828901610ccc565b9550506020610df988828901610cb7565b9450506040610e0a88828901610d35565b935050606086013567ffffffffffffffff811115610e2757600080fd5b610e3388828901610ce1565b9250506080610e4488828901610d35565b9150509295509295909350565b60008060408385031215610e6457600080fd5b6000610e7285828601610ccc565b9250506020610e8385828601610d35565b9150509250929050565b600080600060608486031215610ea257600080fd5b6000610eb086828701610cb7565b9350506020610ec186828701610ccc565b9250506040610ed286828701610d35565b9150509250925092565b6000610ee88383610f83565b905092915050565b610ef981611219565b82525050565b610f0881611207565b82525050565b6000610f19826111b7565b610f2381856111da565b935083602082028501610f3585611192565b8060005b85811015610f715784840389528151610f528582610edc565b9450610f5d836111cd565b925060208a01995050600181019050610f39565b50829750879550505050505092915050565b6000610f8e826111c2565b610f9881856111eb565b9350610fa8818560208601611264565b610fb181611297565b840191505092915050565b6000610fc7826111c2565b610fd181856111fc565b9350610fe1818560208601611264565b80840191505092915050565b60008154600181166000811461100a576001811461102f57611073565b607f600283041661101b81876111fc565b955060ff1983168652808601935050611073565b6002820461103d81876111fc565b9550611048856111a2565b60005b8281101561106a5781548189015260018201915060208101905061104b565b82880195505050505b505092915050565b6110848161124b565b82525050565b60006110968284610fbc565b915081905092915050565b60006110ad8284610fed565b915081905092915050565b60006020820190506110cd6000830184610eff565b92915050565b60006040820190506110e86000830185610ef0565b6110f5602083018461107b565b9392505050565b600060208201905081810360008301526111168184610f0e565b905092915050565b6000602082019050611133600083018461107b565b92915050565b6000604051905081810181811067ffffffffffffffff8211171561115c57600080fd5b8060405250919050565b600067ffffffffffffffff82111561117d57600080fd5b601f19601f8301169050602081019050919050565b6000819050602082019050919050565b60008190508160005260206000209050919050565b600081519050919050565b600081519050919050565b6000602082019050919050565b600082825260208201905092915050565b600082825260208201905092915050565b600081905092915050565b60006112128261122b565b9050919050565b60006112248261122b565b9050919050565b600073ffffffffffffffffffffffffffffffffffffffff82169050919050565b6000819050919050565b82818337600083830152505050565b60005b83811015611282578082015181840152602081019050611267565b83811115611291576000848401525b50505050565b6000601f19601f8301169050919050565b6112b181611207565b81146112bc57600080fd5b50565b6112c881611219565b81146112d357600080fd5b50565b6112df8161124b565b81146112ea57600080fd5b5056fea26469706673582212205bbe37871502e4cff82b39b77538800adbe561903af30d4df7a107d6781e671a64736f6c634300060c0033",
  "source": "// SPDX-License-Identifier: non-open-source\r\npragma solidity >=0.6.0 <0.8.0;\r\npragma experimental ABIEncoderV2;\r\n\r\nimport './Fund.sol';\r\n\r\ncontract Wallet {\r\n\r\n    address private _owner; \r\n\r\n    struct Promise {\r\n        uint index;\r\n        string name;\r\n        uint256 amount;\r\n    }\r\n    \r\n    mapping( string => Promise ) promises;\r\n    string[] internal promiseNames;\r\n    \r\n    event Donate(address indexed _from, address indexed _to, uint256 amount);\r\n    event Redeem(address indexed _from, address indexed _to, uint256 amount);\r\n    event Withdraw(address indexed _to, uint256 _value);\r\n\r\n    modifier sufficient(uint256 amount) {\r\n        require(address(this).balance >= amount);\r\n        _;\r\n    }\r\n\r\n    modifier isOwner(address forCheck) {\r\n        require (address(forCheck) == _owner);\r\n        _;\r\n    }\r\n\r\n    receive () external payable {}\r\n\r\n    function addPromise(string memory name, uint256 amount) internal {\r\n\r\n        promises[name] = Promise(promiseNames.length, name, amount);\r\n\r\n        promiseNames.push(name);\r\n    }\r\n\r\n    function removePromise(uint index) internal {\r\n        \r\n        // move the last one to the index, \r\n        uint lastIndex = promiseNames.length - 1; \r\n        promises[promiseNames[lastIndex]].index = index;\r\n        string memory lastPromiseName = promiseNames[lastIndex];\r\n        promiseNames[index] = lastPromiseName;\r\n        promiseNames.pop();\r\n    }\r\n\r\n    function setOwner(address sender) external {\r\n        _owner = sender;\r\n    }\r\n\r\n    // donate fund is to transfer fund to a donation Fund contract\r\n    function donate(address from, address payable to, uint256 amount) \r\n        public isOwner(from) sufficient(amount)  payable {\r\n        to.transfer(amount);\r\n        emit Donate(from, to, amount);        \r\n    }\r\n\r\n    function redeemPromise(address from, address payable to, uint index) \r\n            external isOwner(from) payable {\r\n        Promise memory redeemed = promises[promiseNames[index]];\r\n        \r\n        to.transfer(redeemed.amount);\r\n        require (address(this).balance >= redeemed.amount);\r\n        emit Redeem(from, to, redeemed.amount);\r\n\r\n        removePromise(index);\r\n    }\r\n    \r\n    // consume fund from a Fund contract address\r\n    function consume(address payable provider, address consumer, uint256 amount) \r\n            public payable isOwner(consumer) {\r\n        Fund source = Fund(provider);\r\n        source.consume(address(this), amount);        \r\n    }\r\n\r\n    // consume fund from a Fund contract address\r\n    function consumeWithPromise(address payable provider, address consumer, uint256 amount, \r\n                            string memory promiseName, uint256 promiseAmount) \r\n            external payable isOwner(consumer)  {\r\n        consume(provider, consumer, amount);\r\n        addPromise(promiseName, promiseAmount);    \r\n    }\r\n\r\n    // withdraw token from wallet to owner\r\n    function withdraw(address payable to, uint256 amount) external \r\n        isOwner(to) sufficient(amount) payable {\r\n        to.transfer(amount);\r\n        emit Withdraw(to, amount);\r\n    }\r\n\r\n    function getBalance() public view returns(uint) {\r\n        return address(this).balance;\r\n    }\r\n\r\n    function getOwner() public view returns(address) {\r\n        return _owner;\r\n    }\r\n\r\n    function getPromises() public view returns(string[] memory) {\r\n\r\n        string[] memory stored = new string[](promiseNames.length);\r\n\r\n        for (uint i=0; i < promiseNames.length; i++) {\r\n\r\n            stored[i] = promiseNames[i];\r\n        }\r\n\r\n        return stored;\r\n    }\r\n}",
  "sourcePath": "D:/qiaoy/projects/blockchain/harmonyOne/payitforward/contracts/Wallet.sol",
  "compiler": {
    "name": "solc",
    "version": "0.6.12+commit.27d51765.Emscripten.clang"
  },
  "schemaVersion": "3.0.22",
  "updatedAt": "2020-09-27T20:01:31.299Z",
  "devdoc": {
    "kind": "dev",
    "methods": {},
    "version": 1
  },
  "userdoc": {
    "kind": "user",
    "methods": {},
    "version": 1
  }
}